{
  "contractName": "BlockLab",
  "abi": [
    {
      "inputs": [],
      "payable": false,
      "stateMutability": "nonpayable",
      "type": "constructor"
    },
    {
      "constant": false,
      "inputs": [
        {
          "name": "_requestor",
          "type": "address"
        },
        {
          "name": "_name",
          "type": "string"
        },
        {
          "name": "_date",
          "type": "string"
        }
      ],
      "name": "addJob",
      "outputs": [
        {
          "name": "res",
          "type": "address"
        }
      ],
      "payable": false,
      "stateMutability": "nonpayable",
      "type": "function"
    },
    {
      "constant": true,
      "inputs": [
        {
          "name": "_index",
          "type": "uint256"
        }
      ],
      "name": "getJobAddress",
      "outputs": [
        {
          "name": "res",
          "type": "address"
        }
      ],
      "payable": false,
      "stateMutability": "view",
      "type": "function"
    },
    {
      "constant": true,
      "inputs": [
        {
          "name": "_name",
          "type": "string"
        }
      ],
      "name": "findJobByName",
      "outputs": [
        {
          "name": "res",
          "type": "int256"
        }
      ],
      "payable": false,
      "stateMutability": "view",
      "type": "function"
    },
    {
      "constant": true,
      "inputs": [],
      "name": "getNumJobs",
      "outputs": [
        {
          "name": "res",
          "type": "uint256"
        }
      ],
      "payable": false,
      "stateMutability": "view",
      "type": "function"
    },
    {
      "constant": false,
      "inputs": [
        {
          "name": "_index",
          "type": "uint256"
        }
      ],
      "name": "killJob",
      "outputs": [
        {
          "name": "",
          "type": "bool"
        }
      ],
      "payable": false,
      "stateMutability": "nonpayable",
      "type": "function"
    },
    {
      "constant": false,
      "inputs": [],
      "name": "kill",
      "outputs": [],
      "payable": false,
      "stateMutability": "nonpayable",
      "type": "function"
    }
  ],
  "bytecode": "0x608060405234801561001057600080fd5b506000600181905550336000806101000a81548173ffffffffffffffffffffffffffffffffffffffff021916908373ffffffffffffffffffffffffffffffffffffffff160217905550611d8d806100686000396000f3fe608060405234801561001057600080fd5b506004361061007f576000357c0100000000000000000000000000000000000000000000000000000000900480633bbc5f541461008457806341c0e1b5146100f2578063763ff29e146100fc5780637e0c00ed146101cb578063cbca8fd5146101e9578063e7028b4d1461039b575b600080fd5b6100b06004803603602081101561009a57600080fd5b81019080803590602001909291905050506103e1565b604051808273ffffffffffffffffffffffffffffffffffffffff1673ffffffffffffffffffffffffffffffffffffffff16815260200191505060405180910390f35b6100fa6104ce565b005b6101b56004803603602081101561011257600080fd5b810190808035906020019064010000000081111561012f57600080fd5b82018360208201111561014157600080fd5b8035906020019184600183028401116401000000008311171561016357600080fd5b91908080601f016020809104026020016040519081016040528093929190818152602001838380828437600081840152601f19601f82011690508083019250505050505050919291929050505061055f565b6040518082815260200191505060405180910390f35b6101d3610802565b6040518082815260200191505060405180910390f35b610359600480360360608110156101ff57600080fd5b81019080803573ffffffffffffffffffffffffffffffffffffffff1690602001909291908035906020019064010000000081111561023c57600080fd5b82018360208201111561024e57600080fd5b8035906020019184600183028401116401000000008311171561027057600080fd5b91908080601f016020809104026020016040519081016040528093929190818152602001838380828437600081840152601f19601f820116905080830192505050505050509192919290803590602001906401000000008111156102d357600080fd5b8201836020820111156102e557600080fd5b8035906020019184600183028401116401000000008311171561030757600080fd5b91908080601f016020809104026020016040519081016040528093929190818152602001838380828437600081840152601f19601f82011690508083019250505050505050919291929050505061081e565b604051808273ffffffffffffffffffffffffffffffffffffffff1673ffffffffffffffffffffffffffffffffffffffff16815260200191505060405180910390f35b6103c7600480360360208110156103b157600080fd5b8101908080359060200190929190505050610a31565b604051808215151515815260200191505060405180910390f35b60006001548210156104c4576002600083815260200190815260200160002060009054906101000a900473ffffffffffffffffffffffffffffffffffffffff1673ffffffffffffffffffffffffffffffffffffffff166338cc48316040518163ffffffff167c010000000000000000000000000000000000000000000000000000000002815260040160206040518083038186803b15801561048257600080fd5b505afa158015610496573d6000803e3d6000fd5b505050506040513d60208110156104ac57600080fd5b810190808051906020019092919050505090506104c9565b600090505b919050565b6000809054906101000a900473ffffffffffffffffffffffffffffffffffffffff1673ffffffffffffffffffffffffffffffffffffffff163373ffffffffffffffffffffffffffffffffffffffff16141561055d576000809054906101000a900473ffffffffffffffffffffffffffffffffffffffff1673ffffffffffffffffffffffffffffffffffffffff16ff5b565b600080600090505b6001548110156107d857826040516020018080602001828103825283818151815260200191508051906020019080838360005b838110156105b557808201518184015260208101905061059a565b50505050905090810190601f1680156105e25780820380516001836020036101000a031916815260200191505b5092505050604051602081830303815290604052805190602001206002600083815260200190815260200160002060009054906101000a900473ffffffffffffffffffffffffffffffffffffffff1673ffffffffffffffffffffffffffffffffffffffff16636ebd1d2f6040518163ffffffff167c010000000000000000000000000000000000000000000000000000000002815260040160006040518083038186803b15801561069257600080fd5b505afa1580156106a6573d6000803e3d6000fd5b505050506040513d6000823e3d601f19601f8201168201806040525060208110156106d057600080fd5b8101908080516401000000008111156106e857600080fd5b828101905060208101848111156106fe57600080fd5b815185600182028301116401000000008211171561071b57600080fd5b50509291905050506040516020018080602001828103825283818151815260200191508051906020019080838360005b8381101561076657808201518184015260208101905061074b565b50505050905090810190601f1680156107935780820380516001836020036101000a031916815260200191505b50925050506040516020818303038152906040528051906020012014156107bd57809150506107fd565b6107d1600182610aff90919063ffffffff16565b9050610567565b7fffffffffffffffffffffffffffffffffffffffffffffffffffffffffffffffff9150505b919050565b600061081960018054610b8790919063ffffffff16565b905090565b600061082983610c10565b15610a255783838360405161083d90610e94565b808473ffffffffffffffffffffffffffffffffffffffff1673ffffffffffffffffffffffffffffffffffffffff1681526020018060200180602001838103835285818151815260200191508051906020019080838360005b838110156108b0578082015181840152602081019050610895565b50505050905090810190601f1680156108dd5780820380516001836020036101000a031916815260200191505b50838103825284818151815260200191508051906020019080838360005b838110156109165780820151818401526020810190506108fb565b50505050905090810190601f1680156109435780820380516001836020036101000a031916815260200191505b5095505050505050604051809103906000f080158015610967573d6000803e3d6000fd5b5060026000600154815260200190815260200160002060006101000a81548173ffffffffffffffffffffffffffffffffffffffff021916908373ffffffffffffffffffffffffffffffffffffffff1602179055506109d060018054610aff90919063ffffffff16565b600181905550600260006109ef60018054610b8790919063ffffffff16565b815260200190815260200160002060009054906101000a900473ffffffffffffffffffffffffffffffffffffffff169050610a2a565b600090505b9392505050565b6000600154821015610af5576002600083815260200190815260200160002060009054906101000a900473ffffffffffffffffffffffffffffffffffffffff1673ffffffffffffffffffffffffffffffffffffffff166341c0e1b56040518163ffffffff167c0100000000000000000000000000000000000000000000000000000000028152600401600060405180830381600087803b158015610ad457600080fd5b505af1158015610ae8573d6000803e3d6000fd5b5050505060019050610afa565b600090505b919050565b600080828401905083811015610b7d576040517f08c379a000000000000000000000000000000000000000000000000000000000815260040180806020018281038252601b8152602001807f536166654d6174683a206164646974696f6e206f766572666c6f77000000000081525060200191505060405180910390fd5b8091505092915050565b600082821115610bff576040517f08c379a000000000000000000000000000000000000000000000000000000000815260040180806020018281038252601e8152602001807f536166654d6174683a207375627472616374696f6e206f766572666c6f77000081525060200191505060405180910390fd5b600082840390508091505092915050565b600080600090505b600154811015610e8957826040516020018080602001828103825283818151815260200191508051906020019080838360005b83811015610c66578082015181840152602081019050610c4b565b50505050905090810190601f168015610c935780820380516001836020036101000a031916815260200191505b5092505050604051602081830303815290604052805190602001206002600083815260200190815260200160002060009054906101000a900473ffffffffffffffffffffffffffffffffffffffff1673ffffffffffffffffffffffffffffffffffffffff16636ebd1d2f6040518163ffffffff167c010000000000000000000000000000000000000000000000000000000002815260040160006040518083038186803b158015610d4357600080fd5b505afa158015610d57573d6000803e3d6000fd5b505050506040513d6000823e3d601f19601f820116820180604052506020811015610d8157600080fd5b810190808051640100000000811115610d9957600080fd5b82810190506020810184811115610daf57600080fd5b8151856001820283011164010000000082111715610dcc57600080fd5b50509291905050506040516020018080602001828103825283818151815260200191508051906020019080838360005b83811015610e17578082015181840152602081019050610dfc565b50505050905090810190601f168015610e445780820380516001836020036101000a031916815260200191505b5092505050604051602081830303815290604052805190602001201415610e6f576000915050610e8f565b610e83600182610aff90919063ffffffff16565b50610c18565b60019150505b919050565b610eb68062000ea38339019056fe60806040523480156200001157600080fd5b5060405162000eb638038062000eb6833981810160405260608110156200003757600080fd5b810190808051906020019092919080516401000000008111156200005a57600080fd5b828101905060208101848111156200007157600080fd5b81518560018202830111640100000000821117156200008f57600080fd5b50509291906020018051640100000000811115620000ac57600080fd5b82810190506020810184811115620000c357600080fd5b8151856001820283011164010000000082111715620000e157600080fd5b5050929190505050826000806101000a81548173ffffffffffffffffffffffffffffffffffffffff021916908373ffffffffffffffffffffffffffffffffffffffff160217905550816007908051906020019062000141929190620001b2565b5080600890805190602001906200015a929190620001b2565b506040518060400160405280600381526020017f4e2f41000000000000000000000000000000000000000000000000000000000081525060099080519060200190620001a8929190620001b2565b5050505062000261565b828054600181600116156101000203166002900490600052602060002090601f016020900481019282601f10620001f557805160ff191683800117855562000226565b8280016001018555821562000226579182015b828111156200022557825182559160200191906001019062000208565b5b50905062000235919062000239565b5090565b6200025e91905b808211156200025a57600081600090555060010162000240565b5090565b90565b610c4580620002716000396000f3fe608060405234801561001057600080fd5b5060043610610107576000357c010000000000000000000000000000000000000000000000000000000090048063a3f5b1bf116100a9578063b5f56aea11610083578063b5f56aea14610427578063b8d80f9a146104e2578063d8c7c29b14610565578063e8009b011461059357610107565b8063a3f5b1bf1461032c578063a55591d114610376578063b3f470cc146103a457610107565b80634280be99116100e55780634280be99146101a25780636ebd1d2f146102255780638cd5a4de146102a8578063a14aa003146102ea57610107565b806329ecbc9e1461010c57806338cc48311461014e57806341c0e1b514610198575b600080fd5b6101386004803603602081101561012257600080fd5b81019080803590602001909291905050506105c1565b6040518082815260200191505060405180910390f35b6101566105f2565b604051808273ffffffffffffffffffffffffffffffffffffffff1673ffffffffffffffffffffffffffffffffffffffff16815260200191505060405180910390f35b6101a06105fa565b005b6101aa61070f565b6040518080602001828103825283818151815260200191508051906020019080838360005b838110156101ea5780820151818401526020810190506101cf565b50505050905090810190601f1680156102175780820380516001836020036101000a031916815260200191505b509250505060405180910390f35b61022d6107b1565b6040518080602001828103825283818151815260200191508051906020019080838360005b8381101561026d578082015181840152602081019050610252565b50505050905090810190601f16801561029a5780820380516001836020036101000a031916815260200191505b509250505060405180910390f35b6102d4600480360360208110156102be57600080fd5b8101908080359060200190929190505050610853565b6040518082815260200191505060405180910390f35b6103166004803603602081101561030057600080fd5b8101908080359060200190929190505050610884565b6040518082815260200191505060405180910390f35b6103346108b5565b604051808273ffffffffffffffffffffffffffffffffffffffff1673ffffffffffffffffffffffffffffffffffffffff16815260200191505060405180910390f35b6103a26004803603602081101561038c57600080fd5b81019080803590602001909291905050506108de565b005b6103ac610917565b6040518080602001828103825283818151815260200191508051906020019080838360005b838110156103ec5780820151818401526020810190506103d1565b50505050905090810190601f1680156104195780820380516001836020036101000a031916815260200191505b509250505060405180910390f35b6104e06004803603602081101561043d57600080fd5b810190808035906020019064010000000081111561045a57600080fd5b82018360208201111561046c57600080fd5b8035906020019184600183028401116401000000008311171561048e57600080fd5b91908080601f016020809104026020016040519081016040528093929190818152602001838380828437600081840152601f19601f8201169050808301925050505050505091929192905050506109b9565b005b6104ea6109d3565b6040518080602001828103825283818151815260200191508051906020019080838360005b8381101561052a57808201518184015260208101905061050f565b50505050905090810190601f1680156105575780820380516001836020036101000a031916815260200191505b509250505060405180910390f35b6105916004803603602081101561057b57600080fd5b8101908080359060200190929190505050610a71565b005b6105bf600480360360208110156105a957600080fd5b8101908080359060200190929190505050610aaa565b005b60006005548210156105e857600260008381526020019081526020016000205490506105ed565b600090505b919050565b600030905090565b6000809054906101000a900473ffffffffffffffffffffffffffffffffffffffff1673ffffffffffffffffffffffffffffffffffffffff163373ffffffffffffffffffffffffffffffffffffffff16141561070d577f4b0bc4f25f8d0b92d2e12b686ba96cd75e4e69325e6cf7b1f3119d14eaf2cbdf6000809054906101000a900473ffffffffffffffffffffffffffffffffffffffff16604051808273ffffffffffffffffffffffffffffffffffffffff1673ffffffffffffffffffffffffffffffffffffffff16815260200191505060405180910390a16000809054906101000a900473ffffffffffffffffffffffffffffffffffffffff1673ffffffffffffffffffffffffffffffffffffffff16ff5b565b606060098054600181600116156101000203166002900480601f0160208091040260200160405190810160405280929190818152602001828054600181600116156101000203166002900480156107a75780601f1061077c576101008083540402835291602001916107a7565b820191906000526020600020905b81548152906001019060200180831161078a57829003601f168201915b5050505050905090565b606060078054600181600116156101000203166002900480601f0160208091040260200160405190810160405280929190818152602001828054600181600116156101000203166002900480156108495780601f1061081e57610100808354040283529160200191610849565b820191906000526020600020905b81548152906001019060200180831161082c57829003601f168201915b5050505050905090565b600060065482101561087a576003600083815260200190815260200160002054905061087f565b600090505b919050565b60006004548210156108ab57600160008381526020019081526020016000205490506108b0565b600090505b919050565b60008060009054906101000a900473ffffffffffffffffffffffffffffffffffffffff16905090565b806001600060045481526020019081526020016000208190555061090e6001600454610ae390919063ffffffff16565b60048190555050565b606060088054600181600116156101000203166002900480601f0160208091040260200160405190810160405280929190818152602001828054600181600116156101000203166002900480156109af5780601f10610984576101008083540402835291602001916109af565b820191906000526020600020905b81548152906001019060200180831161099257829003601f168201915b5050505050905090565b80600990805190602001906109cf929190610b6b565b5050565b60078054600181600116156101000203166002900480601f016020809104026020016040519081016040528092919081815260200182805460018160011615610100020316600290048015610a695780601f10610a3e57610100808354040283529160200191610a69565b820191906000526020600020905b815481529060010190602001808311610a4c57829003601f168201915b505050505081565b8060026000600554815260200190815260200160002081905550610aa16001600554610ae390919063ffffffff16565b60058190555050565b8060036000600654815260200190815260200160002081905550610ada6001600654610ae390919063ffffffff16565b60068190555050565b600080828401905083811015610b61576040517f08c379a000000000000000000000000000000000000000000000000000000000815260040180806020018281038252601b8152602001807f536166654d6174683a206164646974696f6e206f766572666c6f77000000000081525060200191505060405180910390fd5b8091505092915050565b828054600181600116156101000203166002900490600052602060002090601f016020900481019282601f10610bac57805160ff1916838001178555610bda565b82800160010185558215610bda579182015b82811115610bd9578251825591602001919060010190610bbe565b5b509050610be79190610beb565b5090565b610c0d91905b80821115610c09576000816000905550600101610bf1565b5090565b9056fea265627a7a7230582080d5f2813533c56423b2181a38aa60750799f3891ba1df1e04275a65ee930b8c64736f6c63430005090032a265627a7a7230582048aa3a41558a017051feddf45379dc2307c2dc855f56c3edc77b9ea89736f63b64736f6c63430005090032",
  "source": "pragma solidity ^0.5.2;\n\nimport \"./SafeMath.sol\";\nimport \"./Job.sol\";\n\ncontract BlockLab {\n    // SafeMath is needed to avoid integer overflow\n    using SafeMath for uint256;\n    address payable owner;\n    uint256 numJobs;\n    mapping (uint256 => Job) jobs;\n    constructor () public {\n        numJobs = 0;\n        owner = msg.sender;\n    }\n\n      /** @dev checks the Job name.\n      * @param _name name of the job you are checking\n      * @return res whether or not the name exists\n      */\n    function checkJobName(string memory _name) private view returns(bool res) {\n        uint256 index;\n        for(index = 0; index < numJobs; index.add(1)) {\n            if(keccak256(abi.encode(jobs[index].getJobName())) == keccak256(abi.encode(_name))) {\n                return(false);\n            }\n        }\n        return(true);\n    }\n    /** @dev adds a job to the queue\n      * @param _requestor the address that is requesting the job\n      * @param _name of the job you are checking\n      * @param _date when the job is started\n      * @return res whether or not the name exists\n    */\n    function addJob(address payable _requestor, string memory _name, string memory _date) public returns(address res) {\n        if(checkJobName(_name)) {\n            jobs[numJobs] = new Job(_requestor, _name, _date);\n            numJobs = numJobs.add(1);\n            return(address(jobs[numJobs.sub(1)]));\n        } else {\n            return(address(0x0));\n        }\n    }\n\n    /** @dev gets the address of a job at a specific index in a list\n      * @param _index this is \n      * @return res the address of the job\n    */\n    function getJobAddress(uint256 _index) public view returns(address res) {\n        if(_index < numJobs) {\n            return(jobs[_index].getAddress());\n        } else {\n            return(address(0));\n        }\n    }\n\n    /** @dev returns the index of an inputted job name\n      * @param _name of the job you are checking\n      * @return res the index of the job name specified\n    */\n    function findJobByName(string memory _name) public view returns(int256 res) {\n        uint256 index;\n\n        for(index = 0; index < numJobs; index = index.add(1)) {\n            if(keccak256(abi.encode(jobs[index].getJobName())) == keccak256(abi.encode(_name))) {\n                return(int256(index));\n            }\n        }\n        return(-1);\n    }\n\n    /** @dev gets total number of jobs\n      * @return res number of jobs\n    */\n    function getNumJobs() public view returns(uint256 res) {\n        return(numJobs.sub(1));\n    }\n\n    /** @dev kills the job of a specific index\n      * @param _index the index of the job\n      * @return res a bool saying wether the deletion was sucessful or not\n    */\n    function killJob(uint256 _index) public returns(bool) {\n        if(_index < numJobs) {\n            jobs[_index].kill();\n            return(true);\n        } else {\n            return(false);\n        }\n    }\n\n    /** @dev kills the owner address\n    */\n    function kill() public {\n        if (msg.sender == owner) {\n            selfdestruct(owner);\n        }\n    }\n}\n",
  "sourcePath": "/Users/kenmiyachi/BlockLAB/VMWare/contracts/BlockLab.sol",
  "compiler": {
    "name": "solc",
    "version": "0.5.9+commit.e560f70d.Emscripten.clang"
  },
  "schemaVersion": "3.0.8",
  "updatedAt": "2019-06-11T22:11:47.127Z",
  "devdoc": {
    "methods": {
      "addJob(address,string,string)": {
        "details": "adds a job to the queue",
        "params": {
          "_date": "when the job is started",
          "_name": "of the job you are checking",
          "_requestor": "the address that is requesting the job"
        },
        "return": "res whether or not the name exists"
      },
      "findJobByName(string)": {
        "details": "returns the index of an inputted job name",
        "params": {
          "_name": "of the job you are checking"
        },
        "return": "res the index of the job name specified"
      },
      "getJobAddress(uint256)": {
        "details": "gets the address of a job at a specific index in a list",
        "params": {
          "_index": "this is "
        },
        "return": "res the address of the job"
      },
      "getNumJobs()": {
        "details": "gets total number of jobs",
        "return": "res number of jobs"
      },
      "kill()": {
        "details": "kills the owner address"
      },
      "killJob(uint256)": {
        "details": "kills the job of a specific index",
        "params": {
          "_index": "the index of the job"
        },
        "return": "res a bool saying wether the deletion was sucessful or not"
      }
    }
  },
  "userdoc": {
    "methods": {}
  }
}