{
  "contractName": "Job",
  "abi": [
    {
      "constant": true,
      "inputs": [],
      "name": "jobName",
      "outputs": [
        {
          "name": "",
          "type": "string"
        }
      ],
      "payable": false,
      "stateMutability": "view",
      "type": "function"
    },
    {
      "inputs": [
        {
          "name": "_requestor",
          "type": "address"
        },
        {
          "name": "_name",
          "type": "string"
        },
        {
          "name": "_date",
          "type": "string"
        }
      ],
      "payable": false,
      "stateMutability": "nonpayable",
      "type": "constructor"
    },
    {
      "anonymous": false,
      "inputs": [
        {
          "indexed": false,
          "name": "requestor",
          "type": "address"
        }
      ],
      "name": "Killed",
      "type": "event"
    },
    {
      "constant": true,
      "inputs": [],
      "name": "getAddress",
      "outputs": [
        {
          "name": "",
          "type": "address"
        }
      ],
      "payable": false,
      "stateMutability": "view",
      "type": "function"
    },
    {
      "constant": false,
      "inputs": [
        {
          "name": "_inputAddr",
          "type": "uint256"
        }
      ],
      "name": "addDataInput",
      "outputs": [],
      "payable": false,
      "stateMutability": "nonpayable",
      "type": "function"
    },
    {
      "constant": true,
      "inputs": [
        {
          "name": "index",
          "type": "uint256"
        }
      ],
      "name": "getDataInput",
      "outputs": [
        {
          "name": "",
          "type": "uint256"
        }
      ],
      "payable": false,
      "stateMutability": "view",
      "type": "function"
    },
    {
      "constant": false,
      "inputs": [
        {
          "name": "_anaSPAddr",
          "type": "uint256"
        }
      ],
      "name": "addAnalyticSP",
      "outputs": [],
      "payable": false,
      "stateMutability": "nonpayable",
      "type": "function"
    },
    {
      "constant": true,
      "inputs": [
        {
          "name": "_index",
          "type": "uint256"
        }
      ],
      "name": "getDataOutput",
      "outputs": [
        {
          "name": "",
          "type": "uint256"
        }
      ],
      "payable": false,
      "stateMutability": "view",
      "type": "function"
    },
    {
      "constant": true,
      "inputs": [
        {
          "name": "_index",
          "type": "uint256"
        }
      ],
      "name": "getAnalyticSP",
      "outputs": [
        {
          "name": "",
          "type": "uint256"
        }
      ],
      "payable": false,
      "stateMutability": "view",
      "type": "function"
    },
    {
      "constant": false,
      "inputs": [
        {
          "name": "_outputAddr",
          "type": "uint256"
        }
      ],
      "name": "addDataOutputs",
      "outputs": [],
      "payable": false,
      "stateMutability": "nonpayable",
      "type": "function"
    },
    {
      "constant": false,
      "inputs": [
        {
          "name": "_date",
          "type": "string"
        }
      ],
      "name": "updateFinishedDate",
      "outputs": [],
      "payable": false,
      "stateMutability": "nonpayable",
      "type": "function"
    },
    {
      "constant": true,
      "inputs": [],
      "name": "getRequestor",
      "outputs": [
        {
          "name": "",
          "type": "address"
        }
      ],
      "payable": false,
      "stateMutability": "view",
      "type": "function"
    },
    {
      "constant": true,
      "inputs": [],
      "name": "getSubmittedDate",
      "outputs": [
        {
          "name": "",
          "type": "string"
        }
      ],
      "payable": false,
      "stateMutability": "view",
      "type": "function"
    },
    {
      "constant": true,
      "inputs": [],
      "name": "getFinishedDate",
      "outputs": [
        {
          "name": "",
          "type": "string"
        }
      ],
      "payable": false,
      "stateMutability": "view",
      "type": "function"
    },
    {
      "constant": true,
      "inputs": [],
      "name": "getJobName",
      "outputs": [
        {
          "name": "",
          "type": "string"
        }
      ],
      "payable": false,
      "stateMutability": "view",
      "type": "function"
    },
    {
      "constant": false,
      "inputs": [],
      "name": "kill",
      "outputs": [],
      "payable": false,
      "stateMutability": "nonpayable",
      "type": "function"
    }
  ],
  "bytecode": "0x60806040523480156200001157600080fd5b5060405162000eb638038062000eb6833981810160405260608110156200003757600080fd5b810190808051906020019092919080516401000000008111156200005a57600080fd5b828101905060208101848111156200007157600080fd5b81518560018202830111640100000000821117156200008f57600080fd5b50509291906020018051640100000000811115620000ac57600080fd5b82810190506020810184811115620000c357600080fd5b8151856001820283011164010000000082111715620000e157600080fd5b5050929190505050826000806101000a81548173ffffffffffffffffffffffffffffffffffffffff021916908373ffffffffffffffffffffffffffffffffffffffff160217905550816007908051906020019062000141929190620001b2565b5080600890805190602001906200015a929190620001b2565b506040518060400160405280600381526020017f4e2f41000000000000000000000000000000000000000000000000000000000081525060099080519060200190620001a8929190620001b2565b5050505062000261565b828054600181600116156101000203166002900490600052602060002090601f016020900481019282601f10620001f557805160ff191683800117855562000226565b8280016001018555821562000226579182015b828111156200022557825182559160200191906001019062000208565b5b50905062000235919062000239565b5090565b6200025e91905b808211156200025a57600081600090555060010162000240565b5090565b90565b610c4580620002716000396000f3fe608060405234801561001057600080fd5b5060043610610107576000357c010000000000000000000000000000000000000000000000000000000090048063a3f5b1bf116100a9578063b5f56aea11610083578063b5f56aea14610427578063b8d80f9a146104e2578063d8c7c29b14610565578063e8009b011461059357610107565b8063a3f5b1bf1461032c578063a55591d114610376578063b3f470cc146103a457610107565b80634280be99116100e55780634280be99146101a25780636ebd1d2f146102255780638cd5a4de146102a8578063a14aa003146102ea57610107565b806329ecbc9e1461010c57806338cc48311461014e57806341c0e1b514610198575b600080fd5b6101386004803603602081101561012257600080fd5b81019080803590602001909291905050506105c1565b6040518082815260200191505060405180910390f35b6101566105f2565b604051808273ffffffffffffffffffffffffffffffffffffffff1673ffffffffffffffffffffffffffffffffffffffff16815260200191505060405180910390f35b6101a06105fa565b005b6101aa61070f565b6040518080602001828103825283818151815260200191508051906020019080838360005b838110156101ea5780820151818401526020810190506101cf565b50505050905090810190601f1680156102175780820380516001836020036101000a031916815260200191505b509250505060405180910390f35b61022d6107b1565b6040518080602001828103825283818151815260200191508051906020019080838360005b8381101561026d578082015181840152602081019050610252565b50505050905090810190601f16801561029a5780820380516001836020036101000a031916815260200191505b509250505060405180910390f35b6102d4600480360360208110156102be57600080fd5b8101908080359060200190929190505050610853565b6040518082815260200191505060405180910390f35b6103166004803603602081101561030057600080fd5b8101908080359060200190929190505050610884565b6040518082815260200191505060405180910390f35b6103346108b5565b604051808273ffffffffffffffffffffffffffffffffffffffff1673ffffffffffffffffffffffffffffffffffffffff16815260200191505060405180910390f35b6103a26004803603602081101561038c57600080fd5b81019080803590602001909291905050506108de565b005b6103ac610917565b6040518080602001828103825283818151815260200191508051906020019080838360005b838110156103ec5780820151818401526020810190506103d1565b50505050905090810190601f1680156104195780820380516001836020036101000a031916815260200191505b509250505060405180910390f35b6104e06004803603602081101561043d57600080fd5b810190808035906020019064010000000081111561045a57600080fd5b82018360208201111561046c57600080fd5b8035906020019184600183028401116401000000008311171561048e57600080fd5b91908080601f016020809104026020016040519081016040528093929190818152602001838380828437600081840152601f19601f8201169050808301925050505050505091929192905050506109b9565b005b6104ea6109d3565b6040518080602001828103825283818151815260200191508051906020019080838360005b8381101561052a57808201518184015260208101905061050f565b50505050905090810190601f1680156105575780820380516001836020036101000a031916815260200191505b509250505060405180910390f35b6105916004803603602081101561057b57600080fd5b8101908080359060200190929190505050610a71565b005b6105bf600480360360208110156105a957600080fd5b8101908080359060200190929190505050610aaa565b005b60006005548210156105e857600260008381526020019081526020016000205490506105ed565b600090505b919050565b600030905090565b6000809054906101000a900473ffffffffffffffffffffffffffffffffffffffff1673ffffffffffffffffffffffffffffffffffffffff163373ffffffffffffffffffffffffffffffffffffffff16141561070d577f4b0bc4f25f8d0b92d2e12b686ba96cd75e4e69325e6cf7b1f3119d14eaf2cbdf6000809054906101000a900473ffffffffffffffffffffffffffffffffffffffff16604051808273ffffffffffffffffffffffffffffffffffffffff1673ffffffffffffffffffffffffffffffffffffffff16815260200191505060405180910390a16000809054906101000a900473ffffffffffffffffffffffffffffffffffffffff1673ffffffffffffffffffffffffffffffffffffffff16ff5b565b606060098054600181600116156101000203166002900480601f0160208091040260200160405190810160405280929190818152602001828054600181600116156101000203166002900480156107a75780601f1061077c576101008083540402835291602001916107a7565b820191906000526020600020905b81548152906001019060200180831161078a57829003601f168201915b5050505050905090565b606060078054600181600116156101000203166002900480601f0160208091040260200160405190810160405280929190818152602001828054600181600116156101000203166002900480156108495780601f1061081e57610100808354040283529160200191610849565b820191906000526020600020905b81548152906001019060200180831161082c57829003601f168201915b5050505050905090565b600060065482101561087a576003600083815260200190815260200160002054905061087f565b600090505b919050565b60006004548210156108ab57600160008381526020019081526020016000205490506108b0565b600090505b919050565b60008060009054906101000a900473ffffffffffffffffffffffffffffffffffffffff16905090565b806001600060045481526020019081526020016000208190555061090e6001600454610ae390919063ffffffff16565b60048190555050565b606060088054600181600116156101000203166002900480601f0160208091040260200160405190810160405280929190818152602001828054600181600116156101000203166002900480156109af5780601f10610984576101008083540402835291602001916109af565b820191906000526020600020905b81548152906001019060200180831161099257829003601f168201915b5050505050905090565b80600990805190602001906109cf929190610b6b565b5050565b60078054600181600116156101000203166002900480601f016020809104026020016040519081016040528092919081815260200182805460018160011615610100020316600290048015610a695780601f10610a3e57610100808354040283529160200191610a69565b820191906000526020600020905b815481529060010190602001808311610a4c57829003601f168201915b505050505081565b8060026000600554815260200190815260200160002081905550610aa16001600554610ae390919063ffffffff16565b60058190555050565b8060036000600654815260200190815260200160002081905550610ada6001600654610ae390919063ffffffff16565b60068190555050565b600080828401905083811015610b61576040517f08c379a000000000000000000000000000000000000000000000000000000000815260040180806020018281038252601b8152602001807f536166654d6174683a206164646974696f6e206f766572666c6f77000000000081525060200191505060405180910390fd5b8091505092915050565b828054600181600116156101000203166002900490600052602060002090601f016020900481019282601f10610bac57805160ff1916838001178555610bda565b82800160010185558215610bda579182015b82811115610bd9578251825591602001919060010190610bbe565b5b509050610be79190610beb565b5090565b610c0d91905b80821115610c09576000816000905550600101610bf1565b5090565b9056fea265627a7a7230582080d5f2813533c56423b2181a38aa60750799f3891ba1df1e04275a65ee930b8c64736f6c63430005090032",
  "source": "pragma solidity ^0.5.2;\n\nimport \"./SafeMath.sol\";\n\ncontract Job {\n    address payable requestor;\n    mapping (uint => uint256) dataInputs;\n    mapping (uint => uint256) dataOutputs;\n    mapping (uint => uint256) analyticSP;\n    uint256 numDataInputs;\n    uint256 numDataOutputs;\n    uint256 numAnalyticSP;\n    string public jobName;\n    string submittedDate;\n    string finishedDate;\n\n    using SafeMath for uint256;\n\n    event Killed(address requestor);\n\n    constructor (address payable _requestor, string memory _name, string memory _date) public {\n        requestor = _requestor;\n        jobName = _name;\n        submittedDate = _date;\n        finishedDate = \"N/A\";\n    }\n\n\n    function getAddress() public view returns(address) {\n        return(address(this));\n    }\n\n    function addDataInput(uint256 _inputAddr) public {\n        dataInputs[numDataInputs] = _inputAddr;\n        numDataInputs = numDataInputs.add(1);\n    }\n\n    function getDataInput(uint index) public view returns(uint256) {\n        if(index < numDataInputs) {\n            return(dataInputs[index]);\n        } else {\n            return(0);\n        }\n    }\n\n    function addAnalyticSP(uint256 _anaSPAddr) public {\n        analyticSP[numAnalyticSP] = _anaSPAddr;\n        numAnalyticSP = numAnalyticSP.add(1);\n    }\n\n    function getDataOutput (uint _index) public view returns(uint256) {\n        if(_index < numDataOutputs) {\n            return(dataOutputs[_index]);\n        } else {\n            return(0);\n        }\n    }\n\n    function getAnalyticSP(uint _index) public view returns(uint256) {\n        if(_index < numAnalyticSP) {\n            return(analyticSP[_index]);\n        } else {\n            return(0);\n        }\n    }\n\n    function addDataOutputs(uint256 _outputAddr) public {\n        dataOutputs[numDataOutputs] = _outputAddr;\n        numDataOutputs = numDataOutputs.add(1);\n    }\n\n    function updateFinishedDate(string memory _date) public {\n        finishedDate = _date;\n    }\n\n    function getRequestor() public view returns(address) {\n        return(requestor);\n    }\n\n    function getSubmittedDate() public view returns(string memory) {\n        return(submittedDate);\n    }\n\n    function getFinishedDate() public view returns(string memory) {\n        return(finishedDate);\n    }\n\n    function getJobName() public view returns(string memory) {\n        return(jobName);\n    }\n\n    function kill() public {\n        if (msg.sender == requestor) {\n            emit Killed(requestor);\n            selfdestruct(requestor);\n        }\n    }\n}",
  "sourcePath": "/Users/kenmiyachi/BlockLAB/VMWare/contracts/Job.sol",
  "compiler": {
    "name": "solc",
    "version": "0.5.9+commit.e560f70d.Emscripten.clang"
  },
  "schemaVersion": "3.0.8",
  "updatedAt": "2019-06-11T22:11:47.172Z",
  "devdoc": {
    "methods": {}
  },
  "userdoc": {
    "methods": {}
  }
}